{
  "_format": "hh-sol-artifact-1",
  "contractName": "FxPortalBridge",
  "sourceName": "contracts/MyNFTCollection.sol",
  "abi": [
    {
      "anonymous": false,
      "inputs": [
        {
          "indexed": true,
          "internalType": "address",
          "name": "from",
          "type": "address"
        },
        {
          "indexed": true,
          "internalType": "address",
          "name": "to",
          "type": "address"
        },
        {
          "indexed": false,
          "internalType": "uint256",
          "name": "tokenId",
          "type": "uint256"
        },
        {
          "indexed": false,
          "internalType": "string",
          "name": "data",
          "type": "string"
        }
      ],
      "name": "Deposit",
      "type": "event"
    },
    {
      "inputs": [
        {
          "internalType": "string",
          "name": "data",
          "type": "string"
        },
        {
          "internalType": "address",
          "name": "to",
          "type": "address"
        },
        {
          "internalType": "uint256",
          "name": "tokenId",
          "type": "uint256"
        }
      ],
      "name": "deposit",
      "outputs": [],
      "stateMutability": "nonpayable",
      "type": "function"
    }
  ],
  "bytecode": "0x608060405234801561001057600080fd5b506102da806100206000396000f3fe608060405234801561001057600080fd5b506004361061002b5760003560e01c80632a48ac9a14610030575b600080fd5b61004a6004803603810190610045919061012f565b61004c565b005b8173ffffffffffffffffffffffffffffffffffffffff163373ffffffffffffffffffffffffffffffffffffffff167fef519b7eb82aaf6ac376a6df2d793843ebfd593de5f1a0601d3cc6ab49ebb3958387876040516100ad939291906101d7565b60405180910390a350505050565b6000813590506100ca81610276565b92915050565b60008083601f8401126100e257600080fd5b8235905067ffffffffffffffff8111156100fb57600080fd5b60208301915083600182028301111561011357600080fd5b9250929050565b6000813590506101298161028d565b92915050565b6000806000806060858703121561014557600080fd5b600085013567ffffffffffffffff81111561015f57600080fd5b61016b878288016100d0565b9450945050602061017e878288016100bb565b925050604061018f8782880161011a565b91505092959194509250565b60006101a78385610209565b93506101b4838584610256565b6101bd83610265565b840190509392505050565b6101d18161024c565b82525050565b60006040820190506101ec60008301866101c8565b81810360208301526101ff81848661019b565b9050949350505050565b600082825260208201905092915050565b60006102258261022c565b9050919050565b600073ffffffffffffffffffffffffffffffffffffffff82169050919050565b6000819050919050565b82818337600083830152505050565b6000601f19601f8301169050919050565b61027f8161021a565b811461028a57600080fd5b50565b6102968161024c565b81146102a157600080fd5b5056fea26469706673582212208789d7d6601a19157fed1c66f040fa0c388fd8c61ceaa6be9e843bd46283269764736f6c63430008010033",
  "linkReferences": {},
  "deployedLinkReferences": {}
}