{
  "_format": "hh-sol-artifact-1",
  "contractName": "MyNFTCollection",
  "sourceName": "contracts/MyNFTCollection.sol",
  "abi": [
    {
      "inputs": [],
      "stateMutability": "nonpayable",
      "type": "constructor"
    },
    {
      "anonymous": false,
      "inputs": [
        {
          "indexed": true,
          "internalType": "address",
          "name": "owner",
          "type": "address"
        },
        {
          "indexed": true,
          "internalType": "address",
          "name": "approved",
          "type": "address"
        },
        {
          "indexed": true,
          "internalType": "uint256",
          "name": "tokenId",
          "type": "uint256"
        }
      ],
      "name": "Approval",
      "type": "event"
    },
    {
      "anonymous": false,
      "inputs": [
        {
          "indexed": true,
          "internalType": "address",
          "name": "owner",
          "type": "address"
        },
        {
          "indexed": true,
          "internalType": "address",
          "name": "operator",
          "type": "address"
        },
        {
          "indexed": false,
          "internalType": "bool",
          "name": "approved",
          "type": "bool"
        }
      ],
      "name": "ApprovalForAll",
      "type": "event"
    },
    {
      "anonymous": false,
      "inputs": [
        {
          "indexed": true,
          "internalType": "address",
          "name": "previousOwner",
          "type": "address"
        },
        {
          "indexed": true,
          "internalType": "address",
          "name": "newOwner",
          "type": "address"
        }
      ],
      "name": "OwnershipTransferred",
      "type": "event"
    },
    {
      "anonymous": false,
      "inputs": [
        {
          "indexed": true,
          "internalType": "address",
          "name": "from",
          "type": "address"
        },
        {
          "indexed": true,
          "internalType": "address",
          "name": "to",
          "type": "address"
        },
        {
          "indexed": true,
          "internalType": "uint256",
          "name": "tokenId",
          "type": "uint256"
        }
      ],
      "name": "Transfer",
      "type": "event"
    },
    {
      "inputs": [
        {
          "internalType": "address",
          "name": "to",
          "type": "address"
        },
        {
          "internalType": "uint256",
          "name": "tokenId",
          "type": "uint256"
        }
      ],
      "name": "approve",
      "outputs": [],
      "stateMutability": "nonpayable",
      "type": "function"
    },
    {
      "inputs": [
        {
          "internalType": "address",
          "name": "owner",
          "type": "address"
        }
      ],
      "name": "balanceOf",
      "outputs": [
        {
          "internalType": "uint256",
          "name": "",
          "type": "uint256"
        }
      ],
      "stateMutability": "view",
      "type": "function"
    },
    {
      "inputs": [],
      "name": "currentTokenId",
      "outputs": [
        {
          "internalType": "uint256",
          "name": "",
          "type": "uint256"
        }
      ],
      "stateMutability": "view",
      "type": "function"
    },
    {
      "inputs": [
        {
          "internalType": "uint256",
          "name": "tokenId",
          "type": "uint256"
        }
      ],
      "name": "getApproved",
      "outputs": [
        {
          "internalType": "address",
          "name": "",
          "type": "address"
        }
      ],
      "stateMutability": "view",
      "type": "function"
    },
    {
      "inputs": [
        {
          "internalType": "address",
          "name": "owner",
          "type": "address"
        },
        {
          "internalType": "address",
          "name": "operator",
          "type": "address"
        }
      ],
      "name": "isApprovedForAll",
      "outputs": [
        {
          "internalType": "bool",
          "name": "",
          "type": "bool"
        }
      ],
      "stateMutability": "view",
      "type": "function"
    },
    {
      "inputs": [],
      "name": "maxQuantity",
      "outputs": [
        {
          "internalType": "uint256",
          "name": "",
          "type": "uint256"
        }
      ],
      "stateMutability": "view",
      "type": "function"
    },
    {
      "inputs": [
        {
          "internalType": "uint256",
          "name": "quantity",
          "type": "uint256"
        }
      ],
      "name": "mintNFT",
      "outputs": [],
      "stateMutability": "nonpayable",
      "type": "function"
    },
    {
      "inputs": [],
      "name": "name",
      "outputs": [
        {
          "internalType": "string",
          "name": "",
          "type": "string"
        }
      ],
      "stateMutability": "view",
      "type": "function"
    },
    {
      "inputs": [
        {
          "internalType": "uint256",
          "name": "",
          "type": "uint256"
        }
      ],
      "name": "nfts",
      "outputs": [
        {
          "internalType": "string",
          "name": "name",
          "type": "string"
        },
        {
          "internalType": "string",
          "name": "description",
          "type": "string"
        },
        {
          "internalType": "string",
          "name": "image",
          "type": "string"
        }
      ],
      "stateMutability": "view",
      "type": "function"
    },
    {
      "inputs": [],
      "name": "owner",
      "outputs": [
        {
          "internalType": "address",
          "name": "",
          "type": "address"
        }
      ],
      "stateMutability": "view",
      "type": "function"
    },
    {
      "inputs": [
        {
          "internalType": "uint256",
          "name": "tokenId",
          "type": "uint256"
        }
      ],
      "name": "ownerOf",
      "outputs": [
        {
          "internalType": "address",
          "name": "",
          "type": "address"
        }
      ],
      "stateMutability": "view",
      "type": "function"
    },
    {
      "inputs": [
        {
          "internalType": "uint256",
          "name": "tokenId",
          "type": "uint256"
        }
      ],
      "name": "promptDescription",
      "outputs": [
        {
          "internalType": "string",
          "name": "",
          "type": "string"
        }
      ],
      "stateMutability": "view",
      "type": "function"
    },
    {
      "inputs": [],
      "name": "renounceOwnership",
      "outputs": [],
      "stateMutability": "nonpayable",
      "type": "function"
    },
    {
      "inputs": [
        {
          "internalType": "address",
          "name": "from",
          "type": "address"
        },
        {
          "internalType": "address",
          "name": "to",
          "type": "address"
        },
        {
          "internalType": "uint256",
          "name": "tokenId",
          "type": "uint256"
        }
      ],
      "name": "safeTransferFrom",
      "outputs": [],
      "stateMutability": "nonpayable",
      "type": "function"
    },
    {
      "inputs": [
        {
          "internalType": "address",
          "name": "from",
          "type": "address"
        },
        {
          "internalType": "address",
          "name": "to",
          "type": "address"
        },
        {
          "internalType": "uint256",
          "name": "tokenId",
          "type": "uint256"
        },
        {
          "internalType": "bytes",
          "name": "data",
          "type": "bytes"
        }
      ],
      "name": "safeTransferFrom",
      "outputs": [],
      "stateMutability": "nonpayable",
      "type": "function"
    },
    {
      "inputs": [
        {
          "internalType": "address",
          "name": "operator",
          "type": "address"
        },
        {
          "internalType": "bool",
          "name": "approved",
          "type": "bool"
        }
      ],
      "name": "setApprovalForAll",
      "outputs": [],
      "stateMutability": "nonpayable",
      "type": "function"
    },
    {
      "inputs": [
        {
          "internalType": "bytes4",
          "name": "interfaceId",
          "type": "bytes4"
        }
      ],
      "name": "supportsInterface",
      "outputs": [
        {
          "internalType": "bool",
          "name": "",
          "type": "bool"
        }
      ],
      "stateMutability": "view",
      "type": "function"
    },
    {
      "inputs": [],
      "name": "symbol",
      "outputs": [
        {
          "internalType": "string",
          "name": "",
          "type": "string"
        }
      ],
      "stateMutability": "view",
      "type": "function"
    },
    {
      "inputs": [
        {
          "internalType": "uint256",
          "name": "index",
          "type": "uint256"
        }
      ],
      "name": "tokenByIndex",
      "outputs": [
        {
          "internalType": "uint256",
          "name": "",
          "type": "uint256"
        }
      ],
      "stateMutability": "view",
      "type": "function"
    },
    {
      "inputs": [
        {
          "internalType": "address",
          "name": "owner",
          "type": "address"
        },
        {
          "internalType": "uint256",
          "name": "index",
          "type": "uint256"
        }
      ],
      "name": "tokenOfOwnerByIndex",
      "outputs": [
        {
          "internalType": "uint256",
          "name": "",
          "type": "uint256"
        }
      ],
      "stateMutability": "view",
      "type": "function"
    },
    {
      "inputs": [
        {
          "internalType": "uint256",
          "name": "tokenId",
          "type": "uint256"
        }
      ],
      "name": "tokenURI",
      "outputs": [
        {
          "internalType": "string",
          "name": "",
          "type": "string"
        }
      ],
      "stateMutability": "view",
      "type": "function"
    },
    {
      "inputs": [],
      "name": "totalSupply",
      "outputs": [
        {
          "internalType": "uint256",
          "name": "",
          "type": "uint256"
        }
      ],
      "stateMutability": "view",
      "type": "function"
    },
    {
      "inputs": [
        {
          "internalType": "address",
          "name": "from",
          "type": "address"
        },
        {
          "internalType": "address",
          "name": "to",
          "type": "address"
        },
        {
          "internalType": "uint256",
          "name": "tokenId",
          "type": "uint256"
        }
      ],
      "name": "transferFrom",
      "outputs": [],
      "stateMutability": "nonpayable",
      "type": "function"
    },
    {
      "inputs": [
        {
          "internalType": "address",
          "name": "newOwner",
          "type": "address"
        }
      ],
      "name": "transferOwnership",
      "outputs": [],
      "stateMutability": "nonpayable",
      "type": "function"
    }
  ],
  "bytecode": "0x60806040526005600c556000600d553480156200001b57600080fd5b506040518060400160405280600f81526020017f4d794e4654436f6c6c656374696f6e00000000000000000000000000000000008152506040518060400160405280600381526020017f4d4e4300000000000000000000000000000000000000000000000000000000008152508160009080519060200190620000a092919062000778565b508060019080519060200190620000b992919062000778565b505050620000dc620000d0620006aa60201b60201c565b620006b260201b60201c565b600b60405180606001604052806040518060400160405280600a81526020017f537461726669736820310000000000000000000000000000000000000000000081525081526020016040518060400160405280600881526020017f496e206120706f7400000000000000000000000000000000000000000000000081525081526020016040518060600160405280602e815260200162004198602e913981525090806001815401808255809150506001900390600052602060002090600302016000909190919091506000820151816000019080519060200190620001c392919062000778565b506020820151816001019080519060200190620001e292919062000778565b5060408201518160020190805190602001906200020192919062000778565b505050600b60405180606001604052806040518060400160405280600a81526020017f537461726669736820320000000000000000000000000000000000000000000081525081526020016040518060400160405280600881526020017f496e206120706f7400000000000000000000000000000000000000000000000081525081526020016040518060600160405280602e81526020016200413c602e913981525090806001815401808255809150506001900390600052602060002090600302016000909190919091506000820151816000019080519060200190620002eb92919062000778565b5060208201518160010190805190602001906200030a92919062000778565b5060408201518160020190805190602001906200032992919062000778565b505050600b60405180606001604052806040518060400160405280600a81526020017f537461726669736820330000000000000000000000000000000000000000000081525081526020016040518060400160405280600881526020017f496e206120706f7400000000000000000000000000000000000000000000000081525081526020016040518060600160405280602e81526020016200416a602e9139815250908060018154018082558091505060019003906000526020600020906003020160009091909190915060008201518160000190805190602001906200041392919062000778565b5060208201518160010190805190602001906200043292919062000778565b5060408201518160020190805190602001906200045192919062000778565b505050600b60405180606001604052806040518060400160405280600a81526020017f537461726669736820340000000000000000000000000000000000000000000081525081526020016040518060400160405280600881526020017f496e206120706f7400000000000000000000000000000000000000000000000081525081526020016040518060600160405280602e8152602001620040e0602e9139815250908060018154018082558091505060019003906000526020600020906003020160009091909190915060008201518160000190805190602001906200053b92919062000778565b5060208201518160010190805190602001906200055a92919062000778565b5060408201518160020190805190602001906200057992919062000778565b505050600b60405180606001604052806040518060400160405280600a81526020017f537461726669736820350000000000000000000000000000000000000000000081525081526020016040518060400160405280600881526020017f496e206120706f7400000000000000000000000000000000000000000000000081525081526020016040518060600160405280602e81526020016200410e602e9139815250908060018154018082558091505060019003906000526020600020906003020160009091909190915060008201518160000190805190602001906200066392919062000778565b5060208201518160010190805190602001906200068292919062000778565b506040820151816002019080519060200190620006a192919062000778565b5050506200088d565b600033905090565b6000600a60009054906101000a900473ffffffffffffffffffffffffffffffffffffffff16905081600a60006101000a81548173ffffffffffffffffffffffffffffffffffffffff021916908373ffffffffffffffffffffffffffffffffffffffff1602179055508173ffffffffffffffffffffffffffffffffffffffff168173ffffffffffffffffffffffffffffffffffffffff167f8be0079c531659141344cd1fd0a4f28419497f9722a3daafe3b4186f6b6457e060405160405180910390a35050565b828054620007869062000828565b90600052602060002090601f016020900481019282620007aa5760008555620007f6565b82601f10620007c557805160ff1916838001178555620007f6565b82800160010185558215620007f6579182015b82811115620007f5578251825591602001919060010190620007d8565b5b50905062000805919062000809565b5090565b5b80821115620008245760008160009055506001016200080a565b5090565b600060028204905060018216806200084157607f821691505b602082108114156200085857620008576200085e565b5b50919050565b7f4e487b7100000000000000000000000000000000000000000000000000000000600052602260045260246000fd5b613843806200089d6000396000f3fe608060405234801561001057600080fd5b50600436106101575760003560e01c806370a08231116100c3578063a22cb4651161007c578063a22cb465146103ee578063b88d4fde1461040a578063c87b56dd14610426578063e640cf7d14610456578063e985e9c514610474578063f2fde38b146104a457610157565b806370a082311461032c578063715018a61461035c5780638da5cb5b146103665780638e5a86381461038457806392642744146103b457806395d89b41146103d057610157565b806323b872dd1161011557806323b872dd14610232578063265aa6211461024e5780632f745c591461028057806342842e0e146102b05780634f6ccce7146102cc5780636352211e146102fc57610157565b80629a9b7b1461015c57806301ffc9a71461017a57806306fdde03146101aa578063081812fc146101c8578063095ea7b3146101f857806318160ddd14610214575b600080fd5b6101646104c0565b6040516101719190612fef565b60405180910390f35b610194600480360381019061018f91906128da565b6104c6565b6040516101a19190612d26565b60405180910390f35b6101b2610540565b6040516101bf9190612d41565b60405180910390f35b6101e260048036038101906101dd919061292c565b6105d2565b6040516101ef9190612cbf565b60405180910390f35b610212600480360381019061020d919061289e565b610618565b005b61021c610730565b6040516102299190612fef565b60405180910390f35b61024c60048036038101906102479190612798565b61073d565b005b6102686004803603810190610263919061292c565b61079d565b60405161027793929190612d63565b60405180910390f35b61029a6004803603810190610295919061289e565b61096f565b6040516102a79190612fef565b60405180910390f35b6102ca60048036038101906102c59190612798565b610a14565b005b6102e660048036038101906102e1919061292c565b610a34565b6040516102f39190612fef565b60405180910390f35b6103166004803603810190610311919061292c565b610acb565b6040516103239190612cbf565b60405180910390f35b61034660048036038101906103419190612733565b610b52565b6040516103539190612fef565b60405180910390f35b610364610c0a565b005b61036e610c1e565b60405161037b9190612cbf565b60405180910390f35b61039e6004803603810190610399919061292c565b610c48565b6040516103ab9190612d41565b60405180910390f35b6103ce60048036038101906103c9919061292c565b610d6c565b005b6103d8610e0c565b6040516103e59190612d41565b60405180910390f35b61040860048036038101906104039190612862565b610e9e565b005b610424600480360381019061041f91906127e7565b610eb4565b005b610440600480360381019061043b919061292c565b610f16565b60405161044d9190612d41565b60405180910390f35b61045e610f7e565b60405161046b9190612fef565b60405180910390f35b61048e6004803603810190610489919061275c565b610f84565b60405161049b9190612d26565b60405180910390f35b6104be60048036038101906104b99190612733565b611018565b005b600d5481565b60007f780e9d63000000000000000000000000000000000000000000000000000000007bffffffffffffffffffffffffffffffffffffffffffffffffffffffff1916827bffffffffffffffffffffffffffffffffffffffffffffffffffffffff1916148061053957506105388261109c565b5b9050919050565b60606000805461054f906131e3565b80601f016020809104026020016040519081016040528092919081815260200182805461057b906131e3565b80156105c85780601f1061059d576101008083540402835291602001916105c8565b820191906000526020600020905b8154815290600101906020018083116105ab57829003601f168201915b5050505050905090565b60006105dd8261117e565b6004600083815260200190815260200160002060009054906101000a900473ffffffffffffffffffffffffffffffffffffffff169050919050565b600061062382610acb565b90508073ffffffffffffffffffffffffffffffffffffffff168373ffffffffffffffffffffffffffffffffffffffff161415610694576040517f08c379a000000000000000000000000000000000000000000000000000000000815260040161068b90612f4f565b60405180910390fd5b8073ffffffffffffffffffffffffffffffffffffffff166106b36111c9565b73ffffffffffffffffffffffffffffffffffffffff1614806106e257506106e1816106dc6111c9565b610f84565b5b610721576040517f08c379a000000000000000000000000000000000000000000000000000000000815260040161071890612f8f565b60405180910390fd5b61072b83836111d1565b505050565b6000600880549050905090565b61074e6107486111c9565b8261128a565b61078d576040517f08c379a000000000000000000000000000000000000000000000000000000000815260040161078490612daf565b60405180910390fd5b61079883838361131f565b505050565b600b81815481106107ad57600080fd5b90600052602060002090600302016000915090508060000180546107d0906131e3565b80601f01602080910402602001604051908101604052809291908181526020018280546107fc906131e3565b80156108495780601f1061081e57610100808354040283529160200191610849565b820191906000526020600020905b81548152906001019060200180831161082c57829003601f168201915b50505050509080600101805461085e906131e3565b80601f016020809104026020016040519081016040528092919081815260200182805461088a906131e3565b80156108d75780601f106108ac576101008083540402835291602001916108d7565b820191906000526020600020905b8154815290600101906020018083116108ba57829003601f168201915b5050505050908060020180546108ec906131e3565b80601f0160208091040260200160405190810160405280929190818152602001828054610918906131e3565b80156109655780601f1061093a57610100808354040283529160200191610965565b820191906000526020600020905b81548152906001019060200180831161094857829003601f168201915b5050505050905083565b600061097a83610b52565b82106109bb576040517f08c379a00000000000000000000000000000000000000000000000000000000081526004016109b290612dcf565b60405180910390fd5b600660008473ffffffffffffffffffffffffffffffffffffffff1673ffffffffffffffffffffffffffffffffffffffff168152602001908152602001600020600083815260200190815260200160002054905092915050565b610a2f83838360405180602001604052806000815250610eb4565b505050565b6000610a3e610730565b8210610a7f576040517f08c379a0000000000000000000000000000000000000000000000000000000008152600401610a7690612faf565b60405180910390fd5b60088281548110610ab9577f4e487b7100000000000000000000000000000000000000000000000000000000600052603260045260246000fd5b90600052602060002001549050919050565b600080610ad783611619565b9050600073ffffffffffffffffffffffffffffffffffffffff168173ffffffffffffffffffffffffffffffffffffffff161415610b49576040517f08c379a0000000000000000000000000000000000000000000000000000000008152600401610b4090612f2f565b60405180910390fd5b80915050919050565b60008073ffffffffffffffffffffffffffffffffffffffff168273ffffffffffffffffffffffffffffffffffffffff161415610bc3576040517f08c379a0000000000000000000000000000000000000000000000000000000008152600401610bba90612ecf565b60405180910390fd5b600360008373ffffffffffffffffffffffffffffffffffffffff1673ffffffffffffffffffffffffffffffffffffffff168152602001908152602001600020549050919050565b610c12611656565b610c1c60006116d4565b565b6000600a60009054906101000a900473ffffffffffffffffffffffffffffffffffffffff16905090565b6060600b805490508210610c91576040517f08c379a0000000000000000000000000000000000000000000000000000000008152600401610c8890612f6f565b60405180910390fd5b600b8281548110610ccb577f4e487b7100000000000000000000000000000000000000000000000000000000600052603260045260246000fd5b90600052602060002090600302016001018054610ce7906131e3565b80601f0160208091040260200160405190810160405280929190818152602001828054610d13906131e3565b8015610d605780601f10610d3557610100808354040283529160200191610d60565b820191906000526020600020905b815481529060010190602001808311610d4357829003601f168201915b50505050509050919050565b610d74611656565b600c5481600d54610d8591906130a3565b1115610dc6576040517f08c379a0000000000000000000000000000000000000000000000000000000008152600401610dbd90612e0f565b60405180910390fd5b60005b81811015610e0857610ddd33600d5461179a565b600d6000815480929190610df090613246565b91905055508080610e0090613246565b915050610dc9565b5050565b606060018054610e1b906131e3565b80601f0160208091040260200160405190810160405280929190818152602001828054610e47906131e3565b8015610e945780601f10610e6957610100808354040283529160200191610e94565b820191906000526020600020905b815481529060010190602001808311610e7757829003601f168201915b5050505050905090565b610eb0610ea96111c9565b83836119b8565b5050565b610ec5610ebf6111c9565b8361128a565b610f04576040517f08c379a0000000000000000000000000000000000000000000000000000000008152600401610efb90612daf565b60405180910390fd5b610f1084848484611b25565b50505050565b6060610f218261117e565b6000610f2b611b81565b90506000815111610f4b5760405180602001604052806000815250610f76565b80610f5584611bbe565b604051602001610f66929190612c9b565b6040516020818303038152906040525b915050919050565b600c5481565b6000600560008473ffffffffffffffffffffffffffffffffffffffff1673ffffffffffffffffffffffffffffffffffffffff16815260200190815260200160002060008373ffffffffffffffffffffffffffffffffffffffff1673ffffffffffffffffffffffffffffffffffffffff16815260200190815260200160002060009054906101000a900460ff16905092915050565b611020611656565b600073ffffffffffffffffffffffffffffffffffffffff168173ffffffffffffffffffffffffffffffffffffffff161415611090576040517f08c379a000000000000000000000000000000000000000000000000000000000815260040161108790612e2f565b60405180910390fd5b611099816116d4565b50565b60007f80ac58cd000000000000000000000000000000000000000000000000000000007bffffffffffffffffffffffffffffffffffffffffffffffffffffffff1916827bffffffffffffffffffffffffffffffffffffffffffffffffffffffff1916148061116757507f5b5e139f000000000000000000000000000000000000000000000000000000007bffffffffffffffffffffffffffffffffffffffffffffffffffffffff1916827bffffffffffffffffffffffffffffffffffffffffffffffffffffffff1916145b80611177575061117682611ce2565b5b9050919050565b61118781611d4c565b6111c6576040517f08c379a00000000000000000000000000000000000000000000000000000000081526004016111bd90612f2f565b60405180910390fd5b50565b600033905090565b816004600083815260200190815260200160002060006101000a81548173ffffffffffffffffffffffffffffffffffffffff021916908373ffffffffffffffffffffffffffffffffffffffff160217905550808273ffffffffffffffffffffffffffffffffffffffff1661124483610acb565b73ffffffffffffffffffffffffffffffffffffffff167f8c5be1e5ebec7d5bd14f71427d1e84f3dd0314c0f7b2291e5b200ac8c7c3b92560405160405180910390a45050565b60008061129683610acb565b90508073ffffffffffffffffffffffffffffffffffffffff168473ffffffffffffffffffffffffffffffffffffffff1614806112d857506112d78185610f84565b5b8061131657508373ffffffffffffffffffffffffffffffffffffffff166112fe846105d2565b73ffffffffffffffffffffffffffffffffffffffff16145b91505092915050565b8273ffffffffffffffffffffffffffffffffffffffff1661133f82610acb565b73ffffffffffffffffffffffffffffffffffffffff1614611395576040517f08c379a000000000000000000000000000000000000000000000000000000000815260040161138c90612e4f565b60405180910390fd5b600073ffffffffffffffffffffffffffffffffffffffff168273ffffffffffffffffffffffffffffffffffffffff161415611405576040517f08c379a00000000000000000000000000000000000000000000000000000000081526004016113fc90612e8f565b60405180910390fd5b6114128383836001611d8d565b8273ffffffffffffffffffffffffffffffffffffffff1661143282610acb565b73ffffffffffffffffffffffffffffffffffffffff1614611488576040517f08c379a000000000000000000000000000000000000000000000000000000000815260040161147f90612e4f565b60405180910390fd5b6004600082815260200190815260200160002060006101000a81549073ffffffffffffffffffffffffffffffffffffffff02191690556001600360008573ffffffffffffffffffffffffffffffffffffffff1673ffffffffffffffffffffffffffffffffffffffff168152602001908152602001600020600082825403925050819055506001600360008473ffffffffffffffffffffffffffffffffffffffff1673ffffffffffffffffffffffffffffffffffffffff16815260200190815260200160002060008282540192505081905550816002600083815260200190815260200160002060006101000a81548173ffffffffffffffffffffffffffffffffffffffff021916908373ffffffffffffffffffffffffffffffffffffffff160217905550808273ffffffffffffffffffffffffffffffffffffffff168473ffffffffffffffffffffffffffffffffffffffff167fddf252ad1be2c89b69c2b068fc378daa952ba7f163c4a11628f55a4df523b3ef60405160405180910390a46116148383836001611eed565b505050565b60006002600083815260200190815260200160002060009054906101000a900473ffffffffffffffffffffffffffffffffffffffff169050919050565b61165e6111c9565b73ffffffffffffffffffffffffffffffffffffffff1661167c610c1e565b73ffffffffffffffffffffffffffffffffffffffff16146116d2576040517f08c379a00000000000000000000000000000000000000000000000000000000081526004016116c990612f0f565b60405180910390fd5b565b6000600a60009054906101000a900473ffffffffffffffffffffffffffffffffffffffff16905081600a60006101000a81548173ffffffffffffffffffffffffffffffffffffffff021916908373ffffffffffffffffffffffffffffffffffffffff1602179055508173ffffffffffffffffffffffffffffffffffffffff168173ffffffffffffffffffffffffffffffffffffffff167f8be0079c531659141344cd1fd0a4f28419497f9722a3daafe3b4186f6b6457e060405160405180910390a35050565b600073ffffffffffffffffffffffffffffffffffffffff168273ffffffffffffffffffffffffffffffffffffffff16141561180a576040517f08c379a000000000000000000000000000000000000000000000000000000000815260040161180190612eef565b60405180910390fd5b61181381611d4c565b15611853576040517f08c379a000000000000000000000000000000000000000000000000000000000815260040161184a90612e6f565b60405180910390fd5b611861600083836001611d8d565b61186a81611d4c565b156118aa576040517f08c379a00000000000000000000000000000000000000000000000000000000081526004016118a190612e6f565b60405180910390fd5b6001600360008473ffffffffffffffffffffffffffffffffffffffff1673ffffffffffffffffffffffffffffffffffffffff16815260200190815260200160002060008282540192505081905550816002600083815260200190815260200160002060006101000a81548173ffffffffffffffffffffffffffffffffffffffff021916908373ffffffffffffffffffffffffffffffffffffffff160217905550808273ffffffffffffffffffffffffffffffffffffffff16600073ffffffffffffffffffffffffffffffffffffffff167fddf252ad1be2c89b69c2b068fc378daa952ba7f163c4a11628f55a4df523b3ef60405160405180910390a46119b4600083836001611eed565b5050565b8173ffffffffffffffffffffffffffffffffffffffff168373ffffffffffffffffffffffffffffffffffffffff161415611a27576040517f08c379a0000000000000000000000000000000000000000000000000000000008152600401611a1e90612eaf565b60405180910390fd5b80600560008573ffffffffffffffffffffffffffffffffffffffff1673ffffffffffffffffffffffffffffffffffffffff16815260200190815260200160002060008473ffffffffffffffffffffffffffffffffffffffff1673ffffffffffffffffffffffffffffffffffffffff16815260200190815260200160002060006101000a81548160ff0219169083151502179055508173ffffffffffffffffffffffffffffffffffffffff168373ffffffffffffffffffffffffffffffffffffffff167f17307eab39ab6107e8899845ad3d59bd9653f200f220920489ca2b5937696c3183604051611b189190612d26565b60405180910390a3505050565b611b3084848461131f565b611b3c84848484611ef3565b611b7b576040517f08c379a0000000000000000000000000000000000000000000000000000000008152600401611b7290612def565b60405180910390fd5b50505050565b60606040518060400160405280601d81526020017f68747470733a2f2f676174657761792e697066732e696f2f697066732f000000815250905090565b606060006001611bcd8461208a565b01905060008167ffffffffffffffff811115611c12577f4e487b7100000000000000000000000000000000000000000000000000000000600052604160045260246000fd5b6040519080825280601f01601f191660200182016040528015611c445781602001600182028036833780820191505090505b509050600082602001820190505b600115611cd7578080600190039150507f3031323334353637383961626364656600000000000000000000000000000000600a86061a8153600a8581611cc1577f4e487b7100000000000000000000000000000000000000000000000000000000600052601260045260246000fd5b0494506000851415611cd257611cd7565b611c52565b819350505050919050565b60007f01ffc9a7000000000000000000000000000000000000000000000000000000007bffffffffffffffffffffffffffffffffffffffffffffffffffffffff1916827bffffffffffffffffffffffffffffffffffffffffffffffffffffffff1916149050919050565b60008073ffffffffffffffffffffffffffffffffffffffff16611d6e83611619565b73ffffffffffffffffffffffffffffffffffffffff1614159050919050565b611d99848484846122c1565b6001811115611ddd576040517f08c379a0000000000000000000000000000000000000000000000000000000008152600401611dd490612fcf565b60405180910390fd5b6000829050600073ffffffffffffffffffffffffffffffffffffffff168573ffffffffffffffffffffffffffffffffffffffff161415611e2557611e20816122c7565b611e64565b8373ffffffffffffffffffffffffffffffffffffffff168573ffffffffffffffffffffffffffffffffffffffff1614611e6357611e628582612310565b5b5b600073ffffffffffffffffffffffffffffffffffffffff168473ffffffffffffffffffffffffffffffffffffffff161415611ea757611ea28161247d565b611ee6565b8473ffffffffffffffffffffffffffffffffffffffff168473ffffffffffffffffffffffffffffffffffffffff1614611ee557611ee484826125c0565b5b5b5050505050565b50505050565b6000611f148473ffffffffffffffffffffffffffffffffffffffff1661263f565b1561207d578373ffffffffffffffffffffffffffffffffffffffff1663150b7a02611f3d6111c9565b8786866040518563ffffffff1660e01b8152600401611f5f9493929190612cda565b602060405180830381600087803b158015611f7957600080fd5b505af1925050508015611faa57506040513d601f19601f82011682018060405250810190611fa79190612903565b60015b61202d573d8060008114611fda576040519150601f19603f3d011682016040523d82523d6000602084013e611fdf565b606091505b50600081511415612025576040517f08c379a000000000000000000000000000000000000000000000000000000000815260040161201c90612def565b60405180910390fd5b805181602001fd5b63150b7a0260e01b7bffffffffffffffffffffffffffffffffffffffffffffffffffffffff1916817bffffffffffffffffffffffffffffffffffffffffffffffffffffffff191614915050612082565b600190505b949350505050565b600080600090507a184f03e93ff9f4daa797ed6e38ed64bf6a1f010000000000000000831061210e577a184f03e93ff9f4daa797ed6e38ed64bf6a1f0100000000000000008381612104577f4e487b7100000000000000000000000000000000000000000000000000000000600052601260045260246000fd5b0492506040810190505b6d04ee2d6d415b85acef81000000008310612171576d04ee2d6d415b85acef81000000008381612167577f4e487b7100000000000000000000000000000000000000000000000000000000600052601260045260246000fd5b0492506020810190505b662386f26fc1000083106121c657662386f26fc1000083816121bc577f4e487b7100000000000000000000000000000000000000000000000000000000600052601260045260246000fd5b0492506010810190505b6305f5e1008310612215576305f5e100838161220b577f4e487b7100000000000000000000000000000000000000000000000000000000600052601260045260246000fd5b0492506008810190505b6127108310612260576127108381612256577f4e487b7100000000000000000000000000000000000000000000000000000000600052601260045260246000fd5b0492506004810190505b606483106122a9576064838161229f577f4e487b7100000000000000000000000000000000000000000000000000000000600052601260045260246000fd5b0492506002810190505b600a83106122b8576001810190505b80915050919050565b50505050565b6008805490506009600083815260200190815260200160002081905550600881908060018154018082558091505060019003906000526020600020016000909190919091505550565b6000600161231d84610b52565b61232791906130f9565b905060006007600084815260200190815260200160002054905081811461240c576000600660008673ffffffffffffffffffffffffffffffffffffffff1673ffffffffffffffffffffffffffffffffffffffff168152602001908152602001600020600084815260200190815260200160002054905080600660008773ffffffffffffffffffffffffffffffffffffffff1673ffffffffffffffffffffffffffffffffffffffff168152602001908152602001600020600084815260200190815260200160002081905550816007600083815260200190815260200160002081905550505b6007600084815260200190815260200160002060009055600660008573ffffffffffffffffffffffffffffffffffffffff1673ffffffffffffffffffffffffffffffffffffffff16815260200190815260200160002060008381526020019081526020016000206000905550505050565b6000600160088054905061249191906130f9565b90506000600960008481526020019081526020016000205490506000600883815481106124e7577f4e487b7100000000000000000000000000000000000000000000000000000000600052603260045260246000fd5b90600052602060002001549050806008838154811061252f577f4e487b7100000000000000000000000000000000000000000000000000000000600052603260045260246000fd5b9060005260206000200181905550816009600083815260200190815260200160002081905550600960008581526020019081526020016000206000905560088054806125a4577f4e487b7100000000000000000000000000000000000000000000000000000000600052603160045260246000fd5b6001900381819060005260206000200160009055905550505050565b60006125cb83610b52565b905081600660008573ffffffffffffffffffffffffffffffffffffffff1673ffffffffffffffffffffffffffffffffffffffff168152602001908152602001600020600083815260200190815260200160002081905550806007600084815260200190815260200160002081905550505050565b6000808273ffffffffffffffffffffffffffffffffffffffff163b119050919050565b60006126756126708461302f565b61300a565b90508281526020810184848401111561268d57600080fd5b6126988482856131a1565b509392505050565b6000813590506126af816137b1565b92915050565b6000813590506126c4816137c8565b92915050565b6000813590506126d9816137df565b92915050565b6000815190506126ee816137df565b92915050565b600082601f83011261270557600080fd5b8135612715848260208601612662565b91505092915050565b60008135905061272d816137f6565b92915050565b60006020828403121561274557600080fd5b6000612753848285016126a0565b91505092915050565b6000806040838503121561276f57600080fd5b600061277d858286016126a0565b925050602061278e858286016126a0565b9150509250929050565b6000806000606084860312156127ad57600080fd5b60006127bb868287016126a0565b93505060206127cc868287016126a0565b92505060406127dd8682870161271e565b9150509250925092565b600080600080608085870312156127fd57600080fd5b600061280b878288016126a0565b945050602061281c878288016126a0565b935050604061282d8782880161271e565b925050606085013567ffffffffffffffff81111561284a57600080fd5b612856878288016126f4565b91505092959194509250565b6000806040838503121561287557600080fd5b6000612883858286016126a0565b9250506020612894858286016126b5565b9150509250929050565b600080604083850312156128b157600080fd5b60006128bf858286016126a0565b92505060206128d08582860161271e565b9150509250929050565b6000602082840312156128ec57600080fd5b60006128fa848285016126ca565b91505092915050565b60006020828403121561291557600080fd5b6000612923848285016126df565b91505092915050565b60006020828403121561293e57600080fd5b600061294c8482850161271e565b91505092915050565b61295e8161312d565b82525050565b61296d8161313f565b82525050565b600061297e82613060565b6129888185613076565b93506129988185602086016131b0565b6129a18161331c565b840191505092915050565b60006129b78261306b565b6129c18185613087565b93506129d18185602086016131b0565b6129da8161331c565b840191505092915050565b60006129f08261306b565b6129fa8185613098565b9350612a0a8185602086016131b0565b80840191505092915050565b6000612a23602d83613087565b9150612a2e8261332d565b604082019050919050565b6000612a46602b83613087565b9150612a518261337c565b604082019050919050565b6000612a69603283613087565b9150612a74826133cb565b604082019050919050565b6000612a8c601b83613087565b9150612a978261341a565b602082019050919050565b6000612aaf602683613087565b9150612aba82613443565b604082019050919050565b6000612ad2602583613087565b9150612add82613492565b604082019050919050565b6000612af5601c83613087565b9150612b00826134e1565b602082019050919050565b6000612b18602483613087565b9150612b238261350a565b604082019050919050565b6000612b3b601983613087565b9150612b4682613559565b602082019050919050565b6000612b5e602983613087565b9150612b6982613582565b604082019050919050565b6000612b81602083613087565b9150612b8c826135d1565b602082019050919050565b6000612ba4602083613087565b9150612baf826135fa565b602082019050919050565b6000612bc7601883613087565b9150612bd282613623565b602082019050919050565b6000612bea602183613087565b9150612bf58261364c565b604082019050919050565b6000612c0d601683613087565b9150612c188261369b565b602082019050919050565b6000612c30603d83613087565b9150612c3b826136c4565b604082019050919050565b6000612c53602c83613087565b9150612c5e82613713565b604082019050919050565b6000612c76603583613087565b9150612c8182613762565b604082019050919050565b612c9581613197565b82525050565b6000612ca782856129e5565b9150612cb382846129e5565b91508190509392505050565b6000602082019050612cd46000830184612955565b92915050565b6000608082019050612cef6000830187612955565b612cfc6020830186612955565b612d096040830185612c8c565b8181036060830152612d1b8184612973565b905095945050505050565b6000602082019050612d3b6000830184612964565b92915050565b60006020820190508181036000830152612d5b81846129ac565b905092915050565b60006060820190508181036000830152612d7d81866129ac565b90508181036020830152612d9181856129ac565b90508181036040830152612da581846129ac565b9050949350505050565b60006020820190508181036000830152612dc881612a16565b9050919050565b60006020820190508181036000830152612de881612a39565b9050919050565b60006020820190508181036000830152612e0881612a5c565b9050919050565b60006020820190508181036000830152612e2881612a7f565b9050919050565b60006020820190508181036000830152612e4881612aa2565b9050919050565b60006020820190508181036000830152612e6881612ac5565b9050919050565b60006020820190508181036000830152612e8881612ae8565b9050919050565b60006020820190508181036000830152612ea881612b0b565b9050919050565b60006020820190508181036000830152612ec881612b2e565b9050919050565b60006020820190508181036000830152612ee881612b51565b9050919050565b60006020820190508181036000830152612f0881612b74565b9050919050565b60006020820190508181036000830152612f2881612b97565b9050919050565b60006020820190508181036000830152612f4881612bba565b9050919050565b60006020820190508181036000830152612f6881612bdd565b9050919050565b60006020820190508181036000830152612f8881612c00565b9050919050565b60006020820190508181036000830152612fa881612c23565b9050919050565b60006020820190508181036000830152612fc881612c46565b9050919050565b60006020820190508181036000830152612fe881612c69565b9050919050565b60006020820190506130046000830184612c8c565b92915050565b6000613014613025565b90506130208282613215565b919050565b6000604051905090565b600067ffffffffffffffff82111561304a576130496132ed565b5b6130538261331c565b9050602081019050919050565b600081519050919050565b600081519050919050565b600082825260208201905092915050565b600082825260208201905092915050565b600081905092915050565b60006130ae82613197565b91506130b983613197565b9250827fffffffffffffffffffffffffffffffffffffffffffffffffffffffffffffffff038211156130ee576130ed61328f565b5b828201905092915050565b600061310482613197565b915061310f83613197565b9250828210156131225761312161328f565b5b828203905092915050565b600061313882613177565b9050919050565b60008115159050919050565b60007fffffffff0000000000000000000000000000000000000000000000000000000082169050919050565b600073ffffffffffffffffffffffffffffffffffffffff82169050919050565b6000819050919050565b82818337600083830152505050565b60005b838110156131ce5780820151818401526020810190506131b3565b838111156131dd576000848401525b50505050565b600060028204905060018216806131fb57607f821691505b6020821081141561320f5761320e6132be565b5b50919050565b61321e8261331c565b810181811067ffffffffffffffff8211171561323d5761323c6132ed565b5b80604052505050565b600061325182613197565b91507fffffffffffffffffffffffffffffffffffffffffffffffffffffffffffffffff8214156132845761328361328f565b5b600182019050919050565b7f4e487b7100000000000000000000000000000000000000000000000000000000600052601160045260246000fd5b7f4e487b7100000000000000000000000000000000000000000000000000000000600052602260045260246000fd5b7f4e487b7100000000000000000000000000000000000000000000000000000000600052604160045260246000fd5b6000601f19601f8301169050919050565b7f4552433732313a2063616c6c6572206973206e6f7420746f6b656e206f776e6560008201527f72206f7220617070726f76656400000000000000000000000000000000000000602082015250565b7f455243373231456e756d657261626c653a206f776e657220696e646578206f7560008201527f74206f6620626f756e6473000000000000000000000000000000000000000000602082015250565b7f4552433732313a207472616e7366657220746f206e6f6e20455243373231526560008201527f63656976657220696d706c656d656e7465720000000000000000000000000000602082015250565b7f45786365656473206d6178696d756d20746f6b656e206c696d69740000000000600082015250565b7f4f776e61626c653a206e6577206f776e657220697320746865207a65726f206160008201527f6464726573730000000000000000000000000000000000000000000000000000602082015250565b7f4552433732313a207472616e736665722066726f6d20696e636f72726563742060008201527f6f776e6572000000000000000000000000000000000000000000000000000000602082015250565b7f4552433732313a20746f6b656e20616c7265616479206d696e74656400000000600082015250565b7f4552433732313a207472616e7366657220746f20746865207a65726f2061646460008201527f7265737300000000000000000000000000000000000000000000000000000000602082015250565b7f4552433732313a20617070726f766520746f2063616c6c657200000000000000600082015250565b7f4552433732313a2061646472657373207a65726f206973206e6f74206120766160008201527f6c6964206f776e65720000000000000000000000000000000000000000000000602082015250565b7f4552433732313a206d696e7420746f20746865207a65726f2061646472657373600082015250565b7f4f776e61626c653a2063616c6c6572206973206e6f7420746865206f776e6572600082015250565b7f4552433732313a20696e76616c696420746f6b656e2049440000000000000000600082015250565b7f4552433732313a20617070726f76616c20746f2063757272656e74206f776e6560008201527f7200000000000000000000000000000000000000000000000000000000000000602082015250565b7f546f6b656e496420646f6573206e6f7420657869737400000000000000000000600082015250565b7f4552433732313a20617070726f76652063616c6c6572206973206e6f7420746f60008201527f6b656e206f776e6572206f7220617070726f76656420666f7220616c6c000000602082015250565b7f455243373231456e756d657261626c653a20676c6f62616c20696e646578206f60008201527f7574206f6620626f756e64730000000000000000000000000000000000000000602082015250565b7f455243373231456e756d657261626c653a20636f6e736563757469766520747260008201527f616e7366657273206e6f7420737570706f727465640000000000000000000000602082015250565b6137ba8161312d565b81146137c557600080fd5b50565b6137d18161313f565b81146137dc57600080fd5b50565b6137e88161314b565b81146137f357600080fd5b50565b6137ff81613197565b811461380a57600080fd5b5056fea2646970667358221220e0cd3a115e237feecabf00ec20a8e3e0e34dfc632fb75e702274f422124156a464736f6c63430008010033516d636f6b443267564a4371735339644a31506632766d634c624e316a42684c5772703759726a34523858354b50516d634b7172625970726377354e3931574e373771674768644877594d70386a353253516e333945356f4e373558516d4e6d50354457683758527248335052713557686f70666a614d547139414b43573338556162797950456a6578516d616b476862317265415937556a33563434527a527674436f6f79797848364b4a375658755352334e31656f42516d523477546e6e4c6b3176765a4865755478577733366772383534766f705731536b6f336d706e6a77524d5951",
  "linkReferences": {},
  "deployedLinkReferences": {}
}